S013000053656E736F72656E6865742E7372656383
S113000045C000004BC0000049C0000047C00000CC
S113001045C0000043C0000041C000003FC00000D4
S11300203DC000003BC0000039C0000037C00000E4
S113003035C0000033C0000031C000002FC00000F4
S11300402DC000002BC0000029C0000027C0000004
S113005025C0000023C0000021C000001FC0000014
S11300603BC000001BC0000019C0000017C0000006
S113007015C0000013C0000011C000000FC0000034
S11300800DC000000BC0000009C0000011241FBEF9
S1130090CFEFD0E4DEBFCDBF1AD05AC0B1CF80E5D8
S11300A084B980E181B987B981E88AB9089580E487
S11300B080937C008FE880937A008FE780937E00A2
S11300C00895EAE7F0E08081806480830895E7DFA3
S11300D0EEDF7894F6DFFFCF1F920F920FB60F92E8
S11300E011240BB60F922F933F934F935F936F930B
S11300F07F938F939F93AF93BF93EF93FF9380E886
S11301008BB9DFDF2FE78AE196E0215080409040F1
S1130110E1F700C000001BB82FE78AE196E0215008
S113012080409040E1F700C00000FF91EF91BF9143
S1130130AF919F918F917F916F915F914F913F917B
S11301402F910F900BBE0F900FBE0F901F9018951C
S1070150F894FFCF4D
S9030000FC
